:100000000C9468000C9490000C9490000C94900058
:100010000C9490000C9490000C9490000C94900020
:100020000C9490000C9490000C9490000C94900010
:100030000C9490000C9490000C9490000C94900000
:100040000C94D30B0C9490000C94430C0C941D0C4A
:100050000C9490000C9490000C9490000C949000E0
:100060000C94750C0C9490000000000024002700F4
:100070002A0000000000250028002B0000000000DE
:1000800023002600290004040404040404040202DA
:100090000202020203030303030301020408102007
:1000A0004080010204081020010204081020000012
:1000B0000008000201000003040700000000000027
:1000C00000001F1C1F1E1F1E1F1F1E1F1E1F900D26
:1000D00011241FBECFEFD8E0DEBFCDBF12E0A0E0FD
:1000E000B1E0EAEFF1E202C005900D92A234B1074F
:1000F000D9F723E0A2E4B2E001C01D92A03DB2070F
:10010000E1F710E0C8E6D0E004C02197FE010E94AC
:10011000F510C736D107C9F70E94E60D0C94FB1005
:100120000C940000EDEBF3E0A081B181A80FB11DAC
:100130006C9321E030E001C0220F8A95EAF78381B9
:10014000822B83830895833081F028F4813099F0E5
:100150008230A9F008958730A9F08830C9F0843042
:10016000B1F4809180008F7D03C0809180008F77F3
:1001700080938000089584B58F7784BD089584B5F9
:100180008F7DFBCF8091B0008F778093B000089572
:100190008091B0008F7DF9CFCF93DF93282F30E08F
:1001A000F901E255FF4F8491F901E656FF4FD491D2
:1001B000F901EA57FF4FC491CC23A1F081110E94AD
:1001C000A300EC2FF0E0EE0FFF1FE458FF4FA591C6
:1001D000B491EC91ED2381E090E009F480E0DF91AF
:1001E000CF91089580E090E0FACF1F93CF93DF93F3
:1001F000282F30E0F901E255FF4F8491F901E656CE
:10020000FF4FD491F901EA57FF4FC491CC23A9F0D5
:10021000162F81110E94A300EC2FF0E0EE0FFF1FBC
:10022000EE58FF4FA591B4918FB7F894EC9111114E
:1002300008C0D095DE23DC938FBFDF91CF911F9153
:100240000895DE2BF8CFCF93DF93C82FD62F80E50C
:100250008CBD81E08DBD60E08091C5030E94F500FA
:10026000CD27DC27CD270CB405FC13C0DEBD000074
:100270000DB407FEFDCF9EB5CEBD00000DB407FE48
:10028000FDCF8EB561E08091C503DF91CF910C94D5
:10029000F500CEBD00000DB407FEFDCF8EB5DEBD6E
:1002A00000000DB407FEFDCFECCFCF93DF93D0E07D
:1002B000C0E08C2F2091C6033091C703EC2F21158D
:1002C000310521F02C0F3D1FD901EC91F0E0E354F2
:1002D000FC4F9385692F661F6627661F27E0660F10
:1002E00090FD616096952150D1F78F5F0E942301A8
:1002F0002196C430D105E9F66091C1038AE00E94DD
:1003000023011092C0031092C203DF91CF91089590
:10031000CF93DF9390E0FC01E656FF4F24918A577C
:100320009F4FFC0184918823D1F090E0880F991FA2
:10033000FC01E859FF4FA591B491FC01EE58FF4F25
:10034000C591D491623071F49FB7F8943C91822F9B
:10035000809583238C93E8812E2B28839FBFDF9188
:10036000CF9108958FB7F894EC912E2B2C938FBFDB
:10037000F6CF3FB7F89480919E0290919F02A09192
:10038000A002B091A10226B5A89B05C02F3F19F08D
:100390000196A11DB11D3FBFBA2FA92F982F882705
:1003A000BC01CD01620F711D811D911D42E0660FE0
:1003B000771F881F991F4A95D1F708958F929F92B2
:1003C000AF92BF92CF92DF92EF92FF924B015C010E
:1003D0000E94B9016B017C010E94B9016C197D0971
:1003E0008E099F09683E734081059105A8F321E0BD
:1003F000821A9108A108B10888EEC80E83E0D81EC1
:10040000E11CF11C81149104A104B10429F7FF90AF
:10041000EF90DF90CF90BF90AF909F908F90089516
:10042000AF92BF92CF92DF92EF92FF920F931F9302
:10043000CF93DF936C017B018B01040F151FEB0140
:100440005E01AE18BF08C017D10759F06991D601F7
:10045000ED91FC910190F081E02DC6010995892B69
:1004600079F7C501DF91CF911F910F91FF90EF9028
:10047000DF90CF90BF90AF900895FC01538D448DD5
:10048000252F30E0842F90E0821B930B541710F03F
:10049000CF96089501970895FC01918D828D98174C
:1004A00061F0A28DAE0FBF2FB11D5D968C91928D24
:1004B0009F5F9F73928F90E008958FEF9FEF089555
:1004C000FC01918D828D981731F0828DE80FF11D1E
:1004D000858D90E008958FEF9FEF0895FC01918D39
:1004E000228D892F90E0805C9F4F821B91098F7332
:1004F0009927089584E193E00E946E0221E0892B00
:1005000009F420E0822F089580E090E0892B29F003
:100510000E947A0281110C9400000895FC01A48DC0
:10052000A80FB92FB11DA35ABF4F2C91848D90E015
:1005300001968F739927848FA689B7892C93A089F8
:10054000B1898C91837080648C93938D848D981382
:1005500006C00288F389E02D80818F7D8083089515
:10056000EF92FF920F931F93CF93DF93EC0181E003
:10057000888F9B8D8C8D98131AC0E889F9898081AA
:1005800085FF15C09FB7F894EE89FF896083E889DD
:10059000F98980818370806480839FBF81E090E0CF
:1005A000DF91CF911F910F91FF90EF900895F62E5C
:1005B0000B8D10E00F5F1F4F0F731127E02E8C8DF6
:1005C0008E110CC00FB607FCFACFE889F98980813B
:1005D00085FFF5CFCE010E948E02F1CFEB8DEC0F9F
:1005E000FD2FF11DE35AFF4FF0829FB7F8940B8F58
:1005F000EA89FB8980818062CFCFCF93DF93EC01C2
:10060000888D8823B9F0AA89BB89E889F9898C91FA
:1006100085FD03C0808186FD0DC00FB607FCF7CFB6
:100620008C9185FFF2CF808185FFEDCFCE010E94B6
:100630008E02E9CFDF91CF9108951F93CF93DF937F
:10064000C1E0C0934202882399F1D091B800109183
:10065000BA008091BC008A7B8093BC0060E082E19C
:100660000E94F50060E083E10E94F5001092EA022A
:10067000C093E9021092C40261E082E10E94F50099
:1006800061E083E10E94F5008091B9008E7F809344
:10069000B9008091B9008D7F8093B90088E4809380
:1006A000B80085E48093BC001093BA00D093B800E2
:1006B000DF91CF911F910895CF92DF92EF92FF9239
:1006C0000F931F93CF93DF93D091130381E0D13227
:1006D00008F09CC0C09112030E94B9016B017C011B
:1006E0008091EA0281116CC082E08093EA0281E08D
:1006F0008093E9028FEF8093E8021092E702D09393
:10070000E602A2EFB2E0E6ECF2E080E0D8138DC0A2
:100710001092C5028091C502CC0FC82BC093C502B0
:100720008091C402813009F084C01092C4020E94FA
:10073000B9016B017C018091C5028093BB0080915F
:10074000EC029091ED02A091EE02B091EF02892BA4
:100750008A2B8B2BA1F00E94B9010091EC02109121
:10076000ED022091EE023091EF026C197D098E09A5
:100770009F09061717072807390708F442C0809118
:10078000BC0083FDD8CF85EC8093BC000E94B901EA
:100790006B017C018091EA02823009F44CC08091A7
:1007A000E8028F3F09F469C08091E802803209F4C1
:1007B00066C08091E802803309F463C084E026C0FB
:1007C0008091EC029091ED02A091EE02B091EF02C7
:1007D000892B8A2B8B2B09F483CF0E94B9010091BE
:1007E000EC021091ED022091EE023091EF026C19B3
:1007F0007D098E099F09061717072807390708F092
:100800006FCF8091EB020E941D0385E01092F102F0
:10081000109213031092F002DF91CF911F910F916C
:10082000FF90EF90DF90CF9008959D9191938F5F0F
:100830006DCF85EEA9CF8091EC029091ED02A09151
:10084000EE02B091EF02892B8A2B8B2B09F4A2CFF9
:100850000E94B9010091EC021091ED022091EE028C
:100860003091EF026C197D098E099F090617170751
:100870002807390708F08ECFC4CF80E0C7CF82E0C9
:10088000C5CF83E0C3CFCF92DF92EF92FF920F9359
:100890001F93CF93DF93D82FC62F613208F098C0F3
:1008A0000E94B9016B017C018091EA0281116BC049
:1008B00081E08093EA028093E9029FEF9093E8023F
:1008C0001092E7029C0F9093E6028093C5028091FC
:1008D000C502DD0FD82BD093C5028091C4028130B0
:1008E00009F078C01092C4020E94B9016B017C012A
:1008F0008091C5028093BB008091EC029091ED0243
:10090000A091EE02B091EF02892B8A2B8B2BA1F0E4
:100910000E94B9010091EC021091ED022091EE02CB
:100920003091EF026C197D098E099F090617170790
:100930002807390708F448C08091BC0083FDD8CF50
:1009400085EC8093BC000E94B9016B017C01809111
:10095000EA02813009F440C08091E7028C1710F45C
:10096000C091E702E6ECF2E0A4EAB2E080E08C138A
:1009700055C08C2FDF91CF911F910F91FF90EF9079
:10098000DF90CF9008958091EC029091ED02A091BC
:10099000EE02B091EF02892B8A2B8B2B09F484CFC6
:1009A0000E94B9010091EC021091ED022091EE023B
:1009B0003091EF026C197D098E099F090617170700
:1009C0002807390708F070CF8091EB020E941D03C1
:1009D000C0E0CFCF85EEB5CF8091EC029091ED02D3
:1009E000A091EE02B091EF02892B8A2B8B2B09F498
:1009F000AECF0E94B9010091EC021091ED0220915E
:100A0000EE023091EF026C197D098E099F090617DD
:100A100017072807390708F09ACFD6CF91919D93F1
:100A20008F5FA5CF20916302260F3327331F21321A
:100A30003105ECF42091EA02FC0190E080E02430E2
:100A400069F082E00895A09163022191AC014D5BB1
:100A50005D4FA40FB52FB11D2C930196861798F307
:100A600080916302680F6093630280E0089581E0E3
:100A700008950895E091A3028091A202E81730F44E
:100A8000F0E0EC55FD4F808190E008958FEF9FEFEF
:100A900008959091A3028091A2022FEF3FEF981743
:100AA00048F4E92FF0E0EC55FD4F208130E09F5FE6
:100AB0009093A302C90108958091A2029091A3028C
:100AC000891B990B0895CF92DF92EF92FF920F93BB
:100AD0001F93CF93DF937C01CB018A012091F00219
:100AE000222389F0EB016B01C40ED51ECC15DD0568
:100AF00069F06991D701ED91FC910190F081E02DB1
:100B0000C7010995F3CF642F0E941205C801DF9138
:100B1000CF911F910F91FF90EF90DF90CF900895AC
:100B2000CF93DF931F92CDB7DEB769832091F00298
:100B30002223F9F020911303203258F021E030E015
:100B4000FC013383228390E080E00F90DF91CF910E
:100B500008958091F102E82FF0E0EE50FD4F998169
:100B600090838F5F8093F1028093130381E090E084
:100B7000ECCF61E0CE0101960E941205F7CF1F93E2
:100B8000CF93DF93EC0181E08093F00288E68093BD
:100B900012031092F1021092130360E081EB93E0D4
:100BA0000E9490052D811AE0822F612F0E94C110B2
:100BB000682F660F680F660F620F81EB93E00E944B
:100BC00090052C81822F612F0E94C110682F660F23
:100BD000680F660F620F81EB93E00E9490052B81F6
:100BE000822F612F0E94C110682F660F680F660F59
:100BF000620F81EB93E00E94900569819881492FF3
:100C000050E08A81282F30E0E2ECF0E081E08617A6
:100C100030F47491270F311D8F5F3196F8CF633018
:100C200020F0937011F42F5F3F4F6DE671E0469F07
:100C3000C001479F900D569F900D112405964D5F62
:100C40005F4F5695479556954795840F951F820F90
:100C5000931F67E070E00E94CD10682F81EB93E056
:100C60000E9490052A811AE0822F612F0E94C110F4
:100C7000682F660F680F660F620F81EB93E00E948A
:100C800090052981822F612F0E94C110682F660F65
:100C9000680F660F620F81EB93E00E949005288138
:100CA000822F612F0E94C110682F660F680F660F98
:100CB000620F81EB93E00E94900560E081EB93E08E
:100CC0000E949005DF91CF911F910C945C03CF930C
:100CD000C62F91E09093F00298E690931203109241
:100CE000F10210921303682F81EB93E00E949005AC
:100CF0006C2F81EB93E00E949005CF910C945C03E4
:100D000090E080E00895FC01208130E02053384FCE
:100D1000263E87E0380754F0243338403CF4838182
:100D2000883120F481E091819D3008F080E00895C1
:100D3000CF93DF93382F262FFA014AE0642F0E94C9
:100D4000C1109183632F691B770BCB01CAE0D0E000
:100D5000BE010E94E1106083822F642F0E94C110A7
:100D60009383422F491B550BCA01BE010E94E1101B
:100D70006283DF91CF910895FC0101900020E9F793
:100D80003197AF01481B590BBC0184E193E00C94EF
:100D90001002CF93DF930E94BC06EC0188E391E040
:100DA0000E94BC068C0F9D1FDF91CF910895DF92AA
:100DB000EF92FF920F931F93CF93DF9300D000D059
:100DC00000D0CDB7DEB781E08093F00288E6809353
:100DD00012031092F1021092130360E081EB93E092
:100DE0000E9490050E945C0367E088E60E9443042D
:100DF0001092A3028093A20281EB93E00E94490526
:100E00008F77282F30E094E0359527959A95E1F774
:100E1000922F990F990F122F191B110F180F81EB99
:100E200093E00E9449059C0144E0359527954A9539
:100E3000E1F72F703327922F990F990F022F091B7B
:100E4000000F080F81EB93E00E9449059C0154E0DC
:100E5000359527955A95E1F72F703327922F990FE3
:100E6000990FF22EF91AFF0CF80E81EB93E00E9415
:100E7000490581EB93E00E9449059C0164E03595AA
:100E800027956A95E1F72F703327922F990F990FC5
:100E9000E22EE91AEE0CE80E81EB93E00E94490580
:100EA0009C0174E0359527957A95E1F72F703327EB
:100EB000922F990F990FD22ED91ADD0CD80E81EBF3
:100EC00093E00E944905AC01E4E055954795EA9509
:100ED000E1F74F705527942F990F990F242F291B55
:100EE000220F280F3D2DA701B80180E090E0269643
:100EF0000FB6F894DEBF0FBECDBFDF91CF911F912B
:100F00000F91FF90EF90DF900895DF92EF92FF92A4
:100F10000F931F93CF93DF93CDB7DEB72A970FB60A
:100F2000F894DEBF0FBECDBF0E94D706122FF32E5E
:100F3000042FE52ED62E29833A834B835C836D8361
:100F40007E83CE0101960E948306882309F45BC04C
:100F500080918702909188028130910509F461C0E7
:100F60002CF4892BE9F010E000E017C082309105E5
:100F700009F466C0AE01495F5F4F602F039799F790
:100F800080E00E949806E985F0E0EE5FFE4F008168
:100F9000EA85F0E0EE5FFE4F1081F12C60E01BC0AF
:100FA000AE01495F5F4F6D2D8E2D0E949806EF8137
:100FB000F0E0EE5FFE4F6081E885F0E0EE5FFE4F0F
:100FC000F080E985F0E0EE5FFE4F0081EA85F0E019
:100FD000EE5FFE4F108187E00E9492006F2D86E049
:100FE0000E949200602F85E00E949200612F84E0B1
:100FF0000E949200809100018093C10381E0809360
:10100000C2030E9455012A960FB6F894DEBF0FBEA8
:10101000CDBFDF91CF911F910F91FF90EF90DF90A7
:101020000895812F90E08053984F64E670E00E940D
:10103000CD10962FAE01495F5F4F682F892FB5CF36
:10104000AE01495F5F4F6F2D9BCF91E09093F0020F
:1010500098E6909312031092F10210921303682FF6
:1010600081EB93E00E9490050E945C0361E088E6BA
:101070000E9443041092A3028093A20281EB93E0AA
:101080000E94490508952F923F924F925F926F926E
:101090007F928F929F92AF92BF92CF92DF92EF9208
:1010A000FF920F931F93CF93DF93CDB7DEB72C97AB
:1010B0000FB6F894DEBF0FBECDBF67E787E00E9492
:1010C00092006DE686E00E9492006DE685E00E9447
:1010D000920060E084E00E94920080910001809381
:1010E000C10381E08093C2030E94550180E18E8399
:1010F0008CE18D8386E08C8320E081E697E9E3E94B
:10110000FEEF322F337041E050E011F050E040E04C
:1011100061E0620FDA01A359BE4F8A179B0738F0CE
:101120009F01241B350B820F931F262FEACF2983A3
:1011300021E0422F4150550BFA01EE53FF4FE4914D
:10114000311103C0223009F4EF5FF0E041E0420FBB
:101150008E179F0720F08E1B9F0B242FEACF2A8328
:101160008F5F8B8380E00E94250890E0880F892F95
:10117000881F990B892B09F47CC086E1898381E063
:101180008A838B831C821D821E8288E08093C10328
:1011900081E08093C203E980F12C50E3E51A58EF17
:1011A000F50A712C5524539410E000E074E6A72E44
:1011B000B12C44244394C701B5010E94CD10962F51
:1011C000AE01495F5F4F682F892F0E949806E8851E
:1011D000F0E0EE5FFE4F9080E985F0E0EE5FFE4FBD
:1011E000C080EA85F0E0EE5FFE4FD080EF81F0E056
:1011F000EE5FFE4F608187E00E949200692D86E0DD
:101200000E9492006C2D85E00E9492006D2D84E07A
:101210000E94920082E0711001C088E08093C103B7
:101220004092C2030E9455018FE00E94CC004C0105
:1012300066246394892B09F0612C80E10E94CC0024
:101240006C0181E10E94CC00892811F5011120C0B8
:101250008FEFE81AF80A44E3E41648E0F40620F0B9
:1012600066EEE62E67E0F62E66246394702E062D59
:10127000A2CF0E94D70629833A834B835C836D8378
:101280007E83CE0101960E948306882391F37DCF51
:10129000C114D10489F411110FC051E0E51AF1080D
:1012A00086EEE81687E0F80620F453E3E52E58E0D2
:1012B000F52E00E011E0DACF11E0CD2809F010E0C2
:1012C000009709F055C0511053C0CA80D12C772423
:1012D000739444244394CB86AE01495F5F4F60E032
:1012E0008C2D0E949806EF81F0E0EE5FFE4F0081AA
:1012F000E885F0E0EE5FFE4FB08060E087E00E949E
:10130000920060E086E00E949200602F85E00E94DB
:1013100092006B2D84E00E94920082E0511001C087
:1013200088E08093C1034092C2030E9455018FE080
:101330000E94CC004C0101E0892B09F000E080E123
:101340000E94CC005C0181E10E94CC008928F1F46C
:1013500061101CC04FEFC41AD40A5DE0C516D10459
:1013600018F0CC24C394D12C01E0562C602EB3CFBE
:1013700055245394892B09F0512C072D009564E6D0
:1013800070E080E090E00E94DE0170CFA114B10413
:1013900081F411110EC0C60102970C9730F481E060
:1013A000C81AD108612C11E0E0CF3CE0C32ED12C4B
:1013B000F9CF11E0AB2809F010E0009709F056C012
:1013C000711054C0CB80D12C442443946624639480
:1013D000CC86AE01495F5F4F60E08C2D0E9498067D
:1013E000EF81F0E0EE5FFE4FB080E885F0E0EE5F69
:1013F000FE4FA08060E087E00E94920060E086E0FF
:101400000E9492006B2D85E00E9492006A2D84E07C
:101410000E94920082E0711001C088E08093C103B5
:101420006092C2030E9455018FE00E94CC004C01E3
:1014300055245394892B09F0512C80E10E94CC0053
:101440005C0181E10E94CC008928F1F401111CC0EB
:101450004FEFC41AD40A50E2C516D10410F0D12CB3
:10146000C12C55245394702E052DB2CF772473943C
:10147000892B09F0712C652C609464E670E080E0A3
:1014800090E00E94DE0171CFA114B10479F4111132
:101490000DC081E0C81AD10840E2C416D10418F08A
:1014A0002FE1C22ED12C00E011E0DDCF11E0AB28FE
:1014B00009F010E0009709F054C0411052C0CC80F0
:1014C000D12C01E0332433947C2CAE01495F5F4F73
:1014D00060E08C2D0E949806E885F0E0EE5FFE4FFC
:1014E000B080EF81F0E0EE5FFE4F608187E00E9408
:1014F00092006B2D86E00E94920060E085E00E94E1
:10150000920060E084E00E94920082E0411001C0FD
:1015100088E08093C1033092C2030E9455018FE09E
:101520000E94CC004C0166246394892B09F0612C45
:1015300080E10E94CC005C0181E10E94CC008928FE
:10154000F1F451101CC05FEFC51AD50A88E1C81626
:10155000D10410F0D12CC12C66246394452C562C58
:10156000B3CF44244394892B09F0412C072D0095D7
:1015700064E670E080E090E00E94DE0174CFA11488
:10158000B10479F411110DC041E0C41AD10858E139
:10159000C516D10418F097E1C92ED12C512C11E0B9
:1015A000DDCF11E0AB2809F010E0009709F05FC033
:1015B00001115DC0CD80D12C442443943324339455
:1015C0002C2CAE01495F5F4F6C2D872D0E94980631
:1015D000E885F0E0EE5FFE4F9080E985F0E0EE5F99
:1015E000FE4FA080EA85F0E0EE5FFE4FB080EF8115
:1015F000F0E0EE5FFE4F608187E00E949200692D6F
:1016000086E00E9492006A2D85E00E9492006B2D78
:1016100084E00E94920082E0011101C088E0809382
:10162000C1033092C2030E9455018FE00E94CC009A
:101630004C0155245394892B09F0512C80E10E94D0
:10164000CC005C0181E10E94CC008928E9F46110A2
:101650001BC08FEFC81AD80A4CE3C416D10410F08F
:10166000D12CC12C55245394062D652CA9CF01E013
:10167000892B09F000E0542C509464E670E080E07F
:1016800090E00E94DE016ACFA114B10479F4111137
:101690000DC051E0C51AD1088CE3C816D10418F06A
:1016A0008BE3C82ED12C612C11E0DECF11E0AB28EA
:1016B00009F010E0009789F541102FC080E38E0DEE
:1016C00089834B854A835C855B83872D68E10E9413
:1016D000C1109C83822D6CE30E94C1109D831E82E9
:1016E000CE0101960E94BF052C960FB6F894DEBF7E
:1016F0000FBECDBFDF91CF911F910F91FF90EF9063
:10170000DF90CF90BF90AF909F908F907F906F9021
:101710005F904F903F902F90089544244394892BDD
:1017200009F0412C602E609464E670E080E090E067
:101730000E94DE0199CF85ED8093BC008091EC0280
:101740009091ED02A091EE02B091EF020796A11DDB
:10175000B11D23E0B695A795979587952A95D1F762
:101760002091BC0024FD03C01092EA02089540912C
:10177000EC025091ED026091EE027091EF02452B68
:10178000462B472B69F30097A105B10541F02AE2EA
:101790002A95F1F700C00197A109B109E1CF809125
:1017A000EB020C941D031F920F920FB60F9211249F
:1017B0002F933F938F939F93AF93BF9380919A0200
:1017C00090919B02A0919C02B0919D023091990250
:1017D00023E0230F2D3758F50196A11DB11D20934D
:1017E000990280939A0290939B02A0939C02B093DB
:1017F0009D0280919E0290919F02A091A002B091C3
:10180000A1020196A11DB11D80939E0290939F029B
:10181000A093A002B093A102BF91AF919F918F912D
:101820003F912F910F900FBE0F901F90189526E8B3
:10183000230F0296A11DB11DD2CF1F920F920FB69A
:101840000F9211242F933F934F935F936F937F9346
:101850008F939F93AF93BF93EF93FF9384E193E0B4
:101860000E948E02FF91EF91BF91AF919F918F9156
:101870007F916F915F914F913F912F910F900FBE8C
:101880000F901F9018951F920F920FB60F92112470
:101890002F938F939F93EF93FF93E0912403F09105
:1018A00025038081E0912A03F0912B0382FD1BC068
:1018B000908180912D038F5F8F7320912E0382176B
:1018C00041F0E0912D03F0E0EC5EFC4F958F8093AA
:1018D0002D03FF91EF919F918F912F910F900FBE4C
:1018E0000F901F9018958081F4CF1F920F920FB622
:1018F0000F9211242F933F934F935F936F937F9396
:101900008F939F93AF93BF93EF93FF938091B90011
:10191000887F803609F44AC0F0F5883209F4A5C002
:1019200018F5803109F499C0B8F4882309F4F5C09A
:10193000883009F492C0FF91EF91BF91AF919F91D0
:101940008F917F916F915F914F913F912F910F9068
:101950000FBE0F901F901895883109F486C0803211
:1019600051F78093E80214C0803409F49BC040F41E
:101970008033B9F38833F9F68093E80285ECAEC082
:10198000803509F483C0883509F494C0883499F609
:101990000E949B0BD0CF883909F48AC038F588376C
:1019A00029F050F4883611F0803729F683E08093CF
:1019B000EA021092850255C0883809F479C080394E
:1019C00019F0803809F0B7CF80918502803208F095
:1019D0006FC0E091850281E08E0F80938502809137
:1019E000BB00F0E0EB59FD4F80833BC0803B39F0FA
:1019F000D0F4803A09F477C0883A09F09CCF84E0AB
:101A00008093EA021092640210926302F0E0E0E038
:101A100009958091630281110FC081E08093630278
:101A20001092430209C0803C09F4A8CF883C09F415
:101A3000A5CF883B09F07FCFE091640281E08E0F53
:101A400080936402F0E0ED5BFD4F80818093BB00EA
:101A5000909164028091630229C08091C5028093B5
:101A6000BB0085EC8093BC0066CF9091E70280912B
:101A7000E602981758F5E091E70281E08E0F809317
:101A8000E702F0E0EA53FD4F8081E9CFE091E70201
:101A900081E08E0F8093E7028091BB00F0E0EA5373
:101AA000FD4F80839091E7028091E6029817C8F27B
:101AB00085E8D8CFE091E70281E08E0F8093E702BE
:101AC0008091BB00F0E0EA53FD4F80838091E902F2
:101AD00081115ECF81E08093C40284EA8093BC00D0
:101AE0001092EA0228CF85EC8093BC001092EA02A3
:101AF00080918502803230F4E0918502F0E0EB596C
:101B0000FD4F10826091850270E085E692E0F0E082
:101B1000E0E00995109285020ECF1092E80238CFCE
:101B2000E4E1F3E01382128288EE93E0A0E0B0E0FB
:101B300084839583A683B78320E131E031832083BA
:101B400025EC30E03587248724EC30E03787268782
:101B500020EC30E0318B208B21EC30E0338B228B7A
:101B600022EC30E0358B248B26EC30E0378B268B53
:101B7000118E128E138E148EE1EBF3E0138212821B
:101B800084839583A683B78382E291E091838083E7
:101B9000EDECF3E08CEC93E0918380838AE0828328
:101BA000EDEBF3E088EC93E09183808384E0828323
:101BB0008091CD039091CE03A091CF03868397832C
:101BC000A08780E391E0928781870895CF93DF9388
:101BD00000D000D000D0CDB7DEB7789484B5826055
:101BE00084BD84B5816084BD85B5826085BD85B5C1
:101BF000816085BD80916E00816080936E0010923F
:101C000081008091810082608093810080918100B9
:101C1000816080938100809180008160809380004A
:101C20008091B10084608093B1008091B0008160A8
:101C30008093B00080917A00846080937A008091D4
:101C40007A00826080937A0080917A00816080932C
:101C50007A0080917A00806880937A001092C100A7
:101C6000E0912403F091250382E08083E09120033A
:101C7000F09121031082E0912203F09123038FEC75
:101C8000808310922C03E0912803F091290386E0D1
:101C90008083E0912603F091270380818061808317
:101CA000E0912603F0912703808188608083E09192
:101CB0002603F0912703808180688083E0912603CA
:101CC000F091270380818F7D80838BE391E00E94D8
:101CD000C9061FB7F89480918602811127C0E0E9F8
:101CE000F0E08491E4EAF0E09491E82FF0E0EE0F68
:101CF000FF1FE859FF4FA591B491EC91E92321F41E
:101D000061E08AE00E94F50061E08AE00E948801BB
:101D10008CB580618CBD8CB580648CBD61E08DE03C
:101D20000E94880161E08BE00E9488018091860218
:101D30008F5F809386021FBF61E08091CF030E9476
:101D400088018FEF8093C00311E01093C2031093BA
:101D5000C103E8ECF3E084E0DF011D928A95E9F726
:101D600067E08BE00E94230160E089E00E9423018C
:101D700061E08CE00E94230162E08FE00E94880114
:101D800062E080E10E94880162E081E10E948801B6
:101D900088E08093C1031093C20385E491E00E9420
:101DA000C90685E591E00E94C90680E00E942508E9
:101DB00090E0880F892F881F990B892B09F4A6C002
:101DC0008AE691E00E94C9060E94430868E088E123
:101DD0000E94670662E588E00E94670664E589E084
:101DE0000E94670663E48AE00E94670669E48BE06C
:101DF0000E9467066EE48CE00E94670669E48DE04D
:101E00000E94670664E58EE00E94670664E48FE046
:101E10000E94670688E10E94250890E090930101E6
:101E2000809300018EE791E00E94C906F12CE12C1D
:101E300010E000E0D12CC12CB12CA12C0E94850710
:101E400099E1692E712C84E193E00E946E02892B46
:101E500079F084E193E00E944C029C012154310905
:101E60002D30310508F083C03093980220939702FB
:101E70008FE00E94CC004C0180E10E94CC002C013C
:101E800081E10E94CC001C01892809F422C1B3E041
:101E9000AB16B10434F081EE91E00E94BC06B12C87
:101EA000A12C452809F43EC153E0C516D10434F0F5
:101EB0008AEF91E00E94BC06D12CC12CE114F10400
:101EC00069F09FEFE91AF90AA8ECEA16F10431F477
:101ED0001092880210928702F12CE12C232809F439
:101EE0003CC10330110534F087E192E00E94BC064A
:101EF00010E000E06AE070E080E090E00E94DE0127
:101F0000B1E06B1A710809F09ECF98CF88E00E946B
:101F10002508823509F054CF89E00E9425088435D0
:101F200009F04ECF8AE00E942508833409F048CF9B
:101F30008BE00E942508893409F042CF8CE00E9492
:101F400025088E3409F03CCF8DE00E9425088934A5
:101F500009F036CF8EE00E942508843509F030CF95
:101F60008FE00E942508843409F02ACF53CF9C01CA
:101F7000205331092A30310548F4E0919702F0915D
:101F80009802E757FD4F8053808372CF83359105C8
:101F900009F06ECF2091930280919402BAE08B02F7
:101FA000C0011124F4E62F02800D911D112420910F
:101FB0009502820F911D27FD9A95E9E8F2E030E045
:101FC00020E08F3F910531F028F082E991E00E94F6
:101FD000C9064ECF4191240F311D47FD3A95332755
:101FE00043E952E04E175F07A9F78217930719F0EC
:101FF00080EA91E0ECCF809189025AE08502C0012D
:1020000011248053984F20918A02820F911D27FD41
:102010009A959C01265E37402E34310518F082EBEC
:1020200091E0D5CF20918B0260918C02062E000C9E
:10203000770BAAE02A02600D711D11249B0121502B
:1020400031092C30310518F08CEB91E0C0CF209194
:102050008D0240918E02042E000C550BBAE02B022B
:10206000400D511D11249A01215031092F313105A4
:1020700018F087EC91E0ABCFE0918F0220919002B5
:10208000022E000C330BFAE0EF02200D311D11245B
:102090002831310518F080ED91E099CF309191020F
:1020A000E09192020E2E000CFF0BAAE03A02E00D26
:1020B000F11D1124805D974089836A834B832C83B3
:1020C000ED831E82CE0101960E94BF058AED91E04C
:1020D0007ECFA114B104D9F48EEE91E00E94BC062B
:1020E00080910001909101010197A9F09093010165
:1020F00080930001909000019092C10331E03093F1
:10210000C2030E945501692D88E10E9467064FEFC6
:10211000A41AB40AC6CE28E030E03093010120931F
:102120000001E8CFC114D104A1F489E092E00E943B
:10213000BC0680918702909188020196837099274E
:1021400090938802809387020E948507EE24E3948F
:10215000F12C8FEFC81AD80AB1CE0115110521F460
:1021600086E292E00E94BC060F5F1F4F0F3F1105F1
:1021700009F0C0CE84E392E00E94BC060E944308AE
:10218000B7CE991B79E004C0991F961708F0961BEB
:10219000881F7A95C9F780950895AA1BBB1B51E14A
:1021A00007C0AA1FBB1FA617B70710F0A61BB70BC7
:1021B000881F991F5A95A9F780959095BC01CD016C
:1021C000089597FB072E16F4009407D077FD09D0E9
:1021D0000E94CD1007FC05D03EF4909581959F4F4D
:1021E0000895709561957F4F0895EE0FFF1F05903C
:0A21F000F491E02D0994F894FFCF5C
:1021FA0008003F065B4F666D7D077F6F0000000099
:10220A00B00210023D02FD026E024C0260020000A2
:10221A00000090056305800639055C0549053A0505
:10222A0007060504030201000D0A00696E69742895
:10223A00292E2E2E007374617274696E672072746F
:10224A00632E2E2E007374617274696E6720727425
:10225A00632E2E2E20646F6E6500525443206973DC
:10226A00204E4F542072756E6E696E672100696E3A
:10227A00697469616C697A6174696F6E20646F6EE2
:10228A0065004352415020434845434B53554D0046
:10229A00434845434B53554D204D49534D415443B3
:1022AA00480043524150205945415200435241503F
:1022BA00204D4F4E5448004352415020444159004A
:1022CA004352415020484F555200534554204F4BDA
:1022DA000055505F5354415445204F4646005550CF
:1022EA005F5354415445204F4E00444F574E5F535D
:1022FA0054415445204F464600444F574E5F53546D
:10230A00415445204F4E005345545F535441544560
:10231A00204F46460A005345545F535441544520C2
:10232A004F4E0A0050524F4752414D204D4F44459F
:02233A000A0097
:00000001FF
